:10000000D0240020C578000031790000D9760000A6
:10001000D9760000D9760000D9760000D9760000A4
:10002000D9760000D9760000D9760000D1710000A1
:10003000D9760000D976000079710000556E000075
:1000400085780000857800008578000085780000BC
:1000500085780000857800008578000085780000AC
:10006000857800008578000085780000857800009C
:10007000857800008578000085780000857800008C
:10008000857800008578000085780000857800007C
:10009000857800008578000085780000857800006C
:1000A000857800008578000085780000857800005C
:1000B000857800008578000085780000857800004C
:1000C000857800008578000085780000857800003C
:1000D000857800008578000085780000857800002C
:1000E000857800008578000085780000857800001C
:1000F000857800008578000085780000857800000C
:100100007BB972B90029BEBF00204FF0004106E064
:1001100008BF00281CBF6FF000414FF0FF3000F017
:1001200057B8ADF1080C6DE904CE002909DB002BAE
:100130001ADB00F04FF8DDF804E0DDE9022304B03B
:100140007047404261EB4101002B1BDB00F042F89D
:10015000DDF804E0DDE9022304B0404261EB410137
:10016000524263EB43037047524263EB430300F098
:1001700031F8DDF804E0DDE9022304B0404261EB30
:1001800041017047524263EB430300F023F8DDF86E
:1001900004E0DDE9022304B0524263EB43037047FD
:1001A00053B94AB9002908BF00281CBF4FF0FF31DE
:1001B0004FF0FF3000F00CB8ADF1080C6DE904CE43
:1001C00000F008F8DDF804E0DDE9022304B0704730
:1001D000704700BF2DE9F04F099F154604468E4633
:1001E0001E46002B40F0CC808A42B2FA82FC4CD9E9
:1001F000BCF1000F0BD0CCF1200801FA0CFE20FA64
:1002000008F802FA0CF548EA0E0E00FA0CF44FEA70
:1002100015491FFA85F8BEFBF9FA210C09FB1AE310
:100220000AFB08FB41EA03439B452AD9EB180AF174
:10023000FF3004D29B4502D9AAF102002B44A3EB64
:100240000B03A4B2B3FBF9F209FB123302FB08F86B
:1002500044EA0344A04516D92C1902F1FF3303D216
:10026000A04501D9931E2C44A4EB080443EA0040A6
:1002700027B124FA0CF400233C607B603146BDE8D2
:10028000F08F5046DBE71346EEE702B9FFDEBCF124
:10029000000F2ED18B1A01264FEA154EAAB2B3FBDE
:1002A000FEF8210C0EFB183308FB02F941EA034368
:1002B000994561D9EB1808F1FF3004D2994502D96C
:1002C000A8F102002B44A3EB0903A4B2B3FBFEF197
:1002D0000EFB11334A4344EA0344A2424ED92C197F
:1002E00001F1FF3303D2A24201D98B1E2C44A41A80
:1002F000BCE7CCF1200E02FA0CF521FA0EF901FA56
:100300000CF320FA0EFE4EEA03034FEA154800FAFA
:100310000CF4B9FBF8F11FFA85FE08FB1192180CDA
:1003200001FB0EF640EA0242964221D9AA1801F1D9
:10033000FF3003D2964201D9881E2A44921B9BB2F9
:10034000B2FBF8F908FB192209FB0EFE43EA02434F
:100350009E450FD9EB1809F1FF3604D29E4502D90C
:10036000A9F102062B44A3EB0E0346EA004693E7ED
:100370000846E3E74E46F6E74046A4E70B46B6E7F5
:100380008B4205D90FB1C7E900010026304675E759
:10039000B3FA83FCBCF1000F0FD18B4201D3824230
:1003A00009D8841A61EB030E0120002F6AD0C7E937
:1003B000004E002662E76046F7E7CCF1200E03FA14
:1003C0000CF322FA0EF521FA0EF41D4301FA0CF398
:1003D00020FA0EF10B434FEA154A00FA0CF6B4FB73
:1003E000FAF91FFA85F80AFB19401C0C09FB08F101
:1003F00044EA0044A14202FA0CF23FD92C1909F157
:10040000FF3004D2A14202D9A9F102002C44641A9F
:100410009BB2B4FBFAF90AFB194409FB08F843EA5A
:10042000044188452CD9691809F1FF3304D2884565
:1004300002D9A9F10203294443EA0040A1EB0801D3
:10044000A0FB02894945C2464C4602D306D1464527
:1004500004D2B8EB020A69EB0504013897B1B6EB98
:100460000A0361EB040606FA0EFE23FA0CF34EEAC9
:10047000030326FA0CF6C7E900369AE74846C6E7B2
:100480004B46D9E73E46F9E607B50D4A0D481368D5
:1004900001934FF00001032363F307010A4B1B1A7A
:1004A000DB08019863F38F111368984201D00AF0BA
:1004B000B5FD064803B05DF804EB02F0A5BC00BF33
:1004C000B036002034B6000044B6000054B8000036
:1004D000F7B5C7680F4D90F90B002C6801940C26F6
:1004E0004E43884207EB0604B8BFBC59002A1046A9
:1004F000B8BF02F11F00401104EB8001196002F047
:100500001F00019A2B689A4201D00AF087FD03B0C0
:10051000F0BD00BFB036002013B50A4C236801932C
:100520006B46FFF7D5FF009A012303FA00F013682A
:1005300003431360019A23689A4201D00AF06EFDCA
:1005400002B010BDB036002013B50B4C23680193E8
:100550006B46FFF7BDFF009A012303FA00F0136812
:1005600023EA00031360019A23689A4201D00AF03B
:1005700055FD02B010BD00BFB0360020F7B5124ED9
:1005800053F8215034680194046802FB05558F002C
:10059000254469B90289436853431C44019A33686E
:1005A000A5428CBF002001209A420BD00AF036FDF4
:1005B0003B44002A53F8043CB8BF0332921003FBBB
:1005C0000244EAE703B0F0BDB036002007B50A4B9D
:1005D0001A6801924FF02002EFF3118082F3118824
:1005E000BFF36F8F019A1B689A4201D00AF016FD83
:1005F00003B05DF804FB00BFB036002007B5094B1F
:100600001A680192C20703D581F31188BFF36F8F77
:10061000019A1B689A4201D00AF000FD03B05DF810
:1006200004FB00BFB03600202DE9F347284E0789B0
:10063000336801934368056890F80AC05F43FF225E
:100640000446C2723D4400204FF00C0E844509DC84
:1006500000252389AB4225DC019A33689A4234D0C5
:100660000AF0DCFCD4F80C90B7FBF3F10EFB00F8B9
:1006700009EB080202F1040A1F29C2E901AA06DCFB
:10068000E0729B08033323F003030130DEE711F12E
:100690001F0248BF01F13E02521149F8085005EB14
:1006A0008205EEE76268E36820686A4381181F1DCF
:1006B00087509A684A609A682046116099602A4675
:1006C0000021FFF729FF0135C3E702B0BDE8F0873D
:1006D000B03600202DE9F04F8BB000AFC7E90032F3
:1006E0003B6D7B615F4B857A1B687B62AB00073398
:1006F00003F4FF63ADEB030DE9464A46436842F855
:10070000043904460020854200F1FF360ADD28B195
:1007100013689B08033323F00303536052F8043F2C
:100720008B4207D2731C07D17A69002313606FF0E4
:100730000B003FE00130E6E7207C10F0010001D023
:10074000FFF744FFE268F8610C2303FB0623B2467F
:100750001A4652F8045F954276D0D5E900310B6015
:1007600059600023C5E90033236859F82A20EB1AA1
:10077000514693FBF2F22046FFF7E6FE09EB8A03AF
:100780000AF10108BB6108F1FF33B34219DBF969D3
:10079000207CFFF733FF7B691D60002DC7D07B688D
:1007A0001E602368ED1A59F8263095FBF3F53B6877
:1007B00000201D602B4B7A6A1B689A424ED00AF0CB
:1007C0002DFCBB6953F8042BBB612368EB1A93FB28
:1007D000F2F39B00FB600C2303FB08F33B614FF03B
:1007E000010AFB680AEB030BBB695A461B68BB6036
:1007F00041462046FFF790FE4B465A46414620466A
:10080000FFF7BCFE68B1BB6838690AFB03F2E36816
:100810000344A918181DA8509A684A609A68116084
:1008200099600AF1010ABAF1040FDAD1207CF96962
:10083000FFF7E4FE207C10F0010001D0FFF7C6FEB8
:10084000F86108F101089EE70AF1FF3ABAF1FF3FAB
:10085000A3F10C037FF47CAF002598E72C37BD464D
:10086000BDE8F08FB03600202DE9F04F544E87B030
:1008700000AF33687B61837A7E609B00073303F4AB
:10088000FF63ADEB030DEA464368CAF80030054646
:1008900054460120814217D2287C10F001000E46F8
:1008A000904601D0FFF792FE0446002E15DA4FF075
:1008B000FF342146287CFFF7A1FE7B687A691B681C
:1008C0009A4279D00AF0AAFB23689B08033323F0ED
:1008D000030344F8043F0130DCE75AF82630FB609C
:1008E00003FB08FB2B68BB6042463146284603EBFE
:1008F0000B09FFF711FEEA680C2303FB0622BB6815
:10090000111D43F80B109368C9F804309368C3F8BD
:100910000090C2F80890287C2146FFF76FFE287CE3
:1009200010F0010001D0FFF751FE0446002EC0D0A8
:1009300007F11003424631462846FFF7C9FD3A69E0
:100940000028B8BF033020F003031068D84000F03F
:100950000F000F28ADD128F003034FF0000BBB6050
:10096000BB6803EB0B094A46534631462846FFF75E
:1009700005FE98B14A4631462846FFF7E5FDFB687B
:1009800003FB09F92B6803EB090253F809105068BF
:1009900001604860002143F8091051600BF1010B20
:1009A000BBF1040FDCD1B8F1000FB8BF08F10308A8
:1009B000013E4FEAA80878E71C37BD46BDE8F08F36
:1009C000B036002007B5044608461146044A1268AE
:1009D00001921A46A0470AF0A3F806F021FF00BFD3
:1009E000B036002013B5104B1B68019304464FF03E
:1009F000FF31204609F0C4FA03460028F7D0083337
:100A00004268BFF35B8F53E8001F21F0010C43E8FD
:100A100000CEBEF1000FF6D1BFF35B8FCB0700D540
:100A2000904709F097FFE2E7B036002007B5074B83
:100A30001A680192019A1B689A424FF0000001D097
:100A40000AF0ECFA03B05DF804FB00BFB0360020FA
:100A500073B50B4E0446336801930D464520A047FD
:100A600029465220A047019A33689A4201D00AF0E1
:100A7000D5FA29465220234602B0BDE870401847F7
:100A8000B036002007B5094A136801930B6801339B
:100A90000B6001991368994201D00AF0BFFA044B28
:100AA0001B6803B05DF804EB184700BFB0360020A8
:100AB000B43600202DE9F04F87B09B46109C2A4B9E
:100AC000DFF8A8A00293012CB8BF01241546BBF1A2
:100AD000010F1A6805920CBF302220220192804635
:100AE0008946009401260A2700220AF101040AB966
:100AF000AA4523D2B5FBF4F049463030C047013651
:100B00000122013F012FB5FBF4F14FF00A0304FB72
:100B10001155BAFBF3FAE8D1494605F13000C04758
:100B2000BBF1030F03D1009B9C1B002C13DC029B29
:100B3000059A1B689A4213D00AF070FA009BBB42D8
:100B4000DFDBBBF1020FDCD8494601980392013686
:100B5000C047039AD5E749462020C047013CE4E757
:100B600007B0BDE8F08F00BFB0360020FFC99A3B48
:100B700007B5074B1A680192064A1060019A1B6874
:100B80009A4201D00AF04AFA03B05DF804FB00BFB4
:100B9000B0360020B43600202DE9F04F0E46AC49A7
:100BA0008DB009680B911C464FF00009531E054695
:100BB00003934FF0FF384F464FF0000B07E0BBF1B7
:100BC000000F12D1252800F033813146A847039B3E
:100BD00013F8010F03930028F1D19D4B0B9A1B686A
:100BE0009A4200F032810AF019FA64285FD019D8CD
:100BF00039280AD831284ED22D2800F020813028FB
:100C00003DD0252807D1314610E1582800F0A380B7
:100C1000632800F0088131462520A847039B314610
:100C2000187803E1702800F08D8006D869283ED03E
:100C30006C2839D06828CAD0EDE775286BD01AD84F
:100C40007328E8D154F804BBDA4652461AF8010B6F
:100C5000002840F0E580032F40F0F580A2EB0B0B5D
:100C6000A8EB0B0BBBF1000FA6DD31462020A847F7
:100C70000BF1FF3BF6E778286DD07A28DBE7B8F177
:100C8000000F0BDA002F00F0DC80A0F13008002FFD
:100C900008BF02279BE7B8F1000FF6DB0A2202FB30
:100CA0000808A8F13008F2E709F101098FE7B9F166
:100CB000000F14D154F804ABBAF1000F06DA314634
:100CC0002D20A847CAF1000A08F1FF38CDF80080AE
:100CD0003B46524631462846FFF7ECFE6CE7B9F139
:100CE000010FE7D0073424F00704F4E802AB1AF14F
:100CF000004306934BF100030793DDE9060100234F
:100D00004FF0FF328B4208BF8242D5D2314628468F
:100D1000FFF79EFE50E7B9F1000F05D154F8042B00
:100D2000CDF800803B46D5E7B9F1010FF6D0073486
:100D300024F00704F4E80223002B08BFB2F1004FAF
:100D4000EED3E3E731463020A84731467820A84764
:100D50004FF008080127B9F1010F26DC54F8043BD5
:100D60000893002310224FF0000A0493CDF814A03A
:100D700011464B1E98000293089BC0F1200EA0F173
:100D8000200C23FA00F0049B03FA0EFE40EA0E004A
:100D900023FA0CFC40EA0C0010F00F0012D1059B66
:100DA0000BB901292CD1302110E0073424F00702BF
:100DB000144654F8083B08935368D3E7CDF814B0B1
:100DC0000299D6E709288CBF57213021084440B248
:100DD00031460592A847029B059A0AF1010A002BA9
:100DE000ECD1032F7FF4E8AECAEB480ABAF1000F4A
:100DF0007FF7E2AE31462020A8470AF1FF3AF5E737
:100E0000531E9045099304DB012F04D13146302055
:100E1000A847099AD4E7022FFBD131462020F7E7F3
:100E20003146A84711E754F8040B3146A847C3E6FA
:100E3000D9465F464FF0FF384FF0010BC7E6032756
:100E4000C5E60127C3E68346C1E60DB0BDE8F08FD5
:100E5000B036002013B5094C2368019300230246E5
:100E6000009307480B466946FFF796FE019A2368F0
:100E70009A4201D00AF0D2F802B010BDB03600207C
:100E8000850A00000FB413B5094C04A9236851F872
:100E9000040B01930091FFF7DDFF019A23689A424A
:100EA00001D00AF0BBF802B0BDE8104004B07047B2
:100EB000B036002007B5024B1A68019202E000BF6D
:100EC000B0360020019A1B689A4201D00AF0A6F8B9
:100ED00003B05DF804FB00BF37B5144C23680193E1
:100EE0004FF02003EFF3118583F31188BFF36F8F69
:100EF00000F040F80E4A0123C2F840354FF080421E
:100F0000C2F878350B4B4FF0FF329A62DA6285F304
:100F10001188BFF36F8F019A23689A424FF0000047
:100F200001D00AF07BF803B030BD00BFB03600201E
:100F300000E0014000ED00E007B50B4B1A6801929C
:100F40000A4A1268082A04BF094A1068019A1B68F5
:100F500006BFB0FA80F0400900209A4201D00AF0A2
:100F60005DF803B05DF804FBB036002030010010DE
:100F70003401001013B5624C236801934FF0804395
:100F80000022C3F80C21C3F81021C3F838254FF014
:100F9000805203F54043D2F80414C3F82015D2F868
:100FA0000814C3F82415D2F80C14C3F82815D2F885
:100FB0001014C3F82C15D2F81414C3F83015D2F855
:100FC0001814C3F83415D2F81C14C3F84015D2F81D
:100FD0002014C3F84415D2F82414C3F84815D2F8E5
:100FE0002814C3F84C15D2F82C14C3F85015D2F8B5
:100FF0003014C3F85415D2F83414C3F86015D2F87D
:101000003814C3F86415D2F83C14C3F86815D2F844
:101010004014C3F86C15D2F84424C3F87025FFF7C8
:101020008BFF10B1374B384A1A60FFF785FF18B1B4
:10103000364BFB22C3F81825FFF77EFF48B1344931
:10104000344B0A681B6822F00F0203F00F031343AE
:101050000B60FFF771FF18B12F4B4FF400721A604D
:101060004FF08043D3F80024D20744BF6FF0010251
:10107000C3F800244FF01023D3F80022002A03DB2A
:10108000D3F80432002B2FDA244B0122C3F80425B5
:10109000D3F80024002AFBD04FF010221221C2F80E
:1010A0000012D3F80024002AFBD04FF010231222A4
:1010B000C3F80422194B1A46D3F800140029FBD0B8
:1010C0000021C3F80415D2F80034002BFBD0BFF385
:1010D0004F8F1349134BCA6802F4E0621343CB608D
:1010E000BFF34F8F00BFFDE70F4B104A1A60019A04
:1010F00023689A4201D009F091FF02B010BD00BFF1
:10110000B03600208C5600404881030000F00040BB
:10111000E40E0040580200104096024000E00140FA
:1011200000ED00E00400FA05B83600200090D0037E
:1011300007B5064B1A680192019A1B689A4201D0C2
:1011400009F06CFF03B05DF804EB0047B0360020F7
:1011500013B50A4B0A491A6801928C681A468B68C3
:10116000E31A23F07F438342F9D30199136899422C
:1011700001D009F053FF02B010BD00BFB03600200F
:1011800010E000E007B50A4B1A680192019A1B684B
:101190009A4201D009F042FF064B074A1B68B3FB95
:1011A000F2F3584303B05DF804EBFFF7D1BF00BF83
:1011B000B0360020B836002040420F0007B50B4B78
:1011C00000F180401A68019200F51C300122026093
:1011D000BFF36F8FBFF34F8F019A1B689A4201D004
:1011E00009F01CFF03B05DF804FB00BFB03600201F
:1011F00007B50C4B0C491A68019210F0800F00F0F3
:101200000F0214BFD1F81005D1F81405D040019A8F
:101210001B689A4200F0010001D009F0FFFE03B004
:101220005DF804FBB03600200070024007B50B4BA0
:101230001A6801920A4A1268082A0AD1094A1068F3
:10124000003018BF0120019A1B689A4203D009F0B0
:10125000E5FE0020F7E703B05DF804FBB0360020A0
:10126000300100103401001073B5104E0D68346861
:1012700001944C689C4229BFC0E900530021E41A44
:10128000ED1832BFC0E900514C600D60934208D1A7
:10129000201C18BF0120019A33689A4203D009F03C
:1012A000BDFE0020F7E702B070BD00BFB0360020E1
:1012B00037B50D4C0D68236801934B689A4228BFDF
:1012C0001A46C0E90052981A0B68486013440B6034
:1012D000019A2368003018BF01209A4201D009F01A
:1012E0009DFE03B030BD00BFB036002073B54C6822
:1012F0000E4DA2422B68019328BF22460B68002A9C
:1013000014BF1E4600261344C0E90062A4EB020489
:101310000B60019A2B684C6014BF012000209A4298
:1013200001D009F07BFE02B070BD00BFB0360020D6
:1013300007B50B4A136801930A4B10F0800FA3F115
:10134000900108BF0B4600F00F00019903EB00105D
:101350001368994201D009F061FE03B05DF804FB07
:10136000B03600207801002007B50A4B40B21A6859
:1013700001920028B4BF0022102200F00F00104498
:10138000019A1B689A4201D009F048FE03B05DF84B
:1013900004FB00BFB036002007B5084B08491A68A7
:1013A000019200220A6007490A70019A1B689A425A
:1013B00001D009F033FE03B05DF804FBB036002025
:1013C0001C7C02405119002013B50C4C0C4A2368B8
:1013D0000193002313700B4A0093137001238DF8BF
:1013E0000030094B68461B689847019A23689A4267
:1013F00001D009F013FE02B010BD00BFB0360020CE
:1014000050190020531900200802002007B5064B90
:101410001A680192019A1B689A4201D009F0FEFDF8
:1014200003B05DF804FB00BFB03600202DE9F341A6
:101430004D68114EDFF8448033680193954228BF10
:1014400015460C462A4607460968404606F064FCE5
:1014500023686068019AC7E90085401B1D44336812
:101460006060003018BF01209A42256001D009F069
:10147000D5FD02B0BDE8F081B0360020100200209A
:101480002DE9F3410D46134B6C68196801919442A4
:1014900028BF144606469846BCB10F4F296822461D
:1014A000384606F039FC37606B6874601B1B6B6054
:1014B0002B68019A23442B60D8F80030201C18BFF9
:1014C00001209A4203D009F0A9FD0460ECE702B0C4
:1014D000BDE8F081B03600201002002013B5114C99
:1014E0002368019300238DF800300F4BD3F820259B
:1014F000ADF80220D3F8C0340C4A002B13680CBF9F
:101500004FF480714FF001210B431360084B684684
:101510001B689847019A23689A4201D009F07EFD22
:1015200002B010BDB036002000700240E400002080
:101530000802002037B5164C164D2368019301228E
:101540002B6802FA01F10B432B60134B1B68194007
:10155000030611D551B906238DF800308DF802002D
:101560008DF803100D4B68461B689847019A236855
:101570009A420BD009F052FD0029F7D106238DF8CD
:1015800000308DF802008DF80320EBE703B030BD8A
:10159000B0360020E4000020740000200802002083
:1015A00037B50A4D2B680193094B1C782046FFF78D
:1015B000DBFE019A2B689A42014601D009F02EFD0C
:1015C000204603B0BDE83040FFF7B4BFB03600207E
:1015D0005319002007B50D4A136801930C4BBFF354
:1015E0005B8F014653E8000F00EA010C43E800CE90
:1015F000BEF1000FF6D1BFF35B8F019913689942DA
:1016000001D009F00BFD03B05DF804FBB0360020FB
:101610007400002013B5114C23680193FFF7BCFE42
:101620000F4B93F89E20032A22460CD10199136890
:10163000994201D009F0F2FC6FF0010002B0BDE860
:101640001040FFF7C7BFD3F89030002BEED0019ABF
:1016500023689A42EED102B010BD00BFB036002020
:10166000E800002073B5144C054623680193FFF78A
:1016700093FE2846FFF75CFE837B032B264611D1A1
:101680002846FFF771FE019A33689A4201D009F0AB
:10169000C5FC012303FA00F0C04302B0BDE870406E
:1016A000FFF798BF0368002BEAD0019A23689A429B
:1016B000EDD102B070BD00BFB036002007B5074BBA
:1016C0001A680192019A1B689A4201D009F0A6FC9F
:1016D000872003B05DF804EBFFF7C4BFB0360020ED
:1016E00007B5074B1A680192019A1B689A4201D00C
:1016F00009F094FC862003B05DF804EBFFF7B2BF5D
:10170000B036002007B5074B1A680192019A1B6892
:101710009A4201D009F082FC852003B05DF804EB09
:10172000FFF7A0BFB036002007B5074B1A6801923B
:10173000019A1B689A4201D009F070FC842003B022
:101740005DF804EBFFF78EBFB036002007B5074BFE
:101750001A680192019A1B689A4201D009F05EFC56
:10176000832003B05DF804EBFFF77CBFB0360020A8
:1017700007B5074B1A680192019A1B689A4201D07B
:1017800009F04CFC822003B05DF804EBFFF76ABF60
:10179000B036002007B5074B1A680192019A1B6802
:1017A0009A4201D009F03AFC812003B05DF804EBC5
:1017B000FFF758BFB036002013B5114C23680193D2
:1017C000FFF7EAFD0F4B93F88E20032A10D0D3F8D1
:1017D00080306BB96FF08070FFF7FCFE06238DF848
:1017E00000300823ADF80230074B68461B68984765
:1017F000019A23689A4201D009F010FC02B010BD92
:10180000B0360020E80000200802002013B5144C78
:1018100023680193FFF7C0FD124B93F81E21032AA2
:1018200009D16FF48070FFF7D5FE019A23689A42C0
:1018300014D009F0F3FBD3F81031002BF5D16FF47D
:101840008070FFF7C7FE06238DF800308823ADF8BF
:101850000230054B68461B689847E6E702B010BDAA
:10186000B0360020E80000200802002037B5244DE3
:101870002A680192234AD2F80044C2F80044BFF318
:101880006F8FBFF34F8FBFF36F8FBFF34F8FE105A4
:101890000BD51D4B01221A700023009302238DF8F3
:1018A00000301A4B68461B689847A2050AD5164AAD
:1018B00000230093137003238DF80030134B684608
:1018C0001B689847630513D50F4B1A7882B1002423
:1018D0001C700C4B0122C3F808255820FFF76EFC42
:1018E000042300948DF80030084B68461B68984725
:1018F000019A2B689A4201D009F090FB03B030BDE9
:10190000B03600200070024050190020080200206C
:101910002DE9F04F7C4A87B0136805937B4B19780B
:10192000CDE9002300297DD1DFF8E8B1784B1868B4
:10193000784B1D68284075D010F0012579D095FAB4
:10194000A5F5B5FA85F50F2D86BFA5F11004E4B213
:1019500045F080042046FFF7EBFC4FFA84F9B9F11B
:10196000000F064604F0080A828967DAD0E90031E0
:1019700003A8984700B93060674B82221A60019B28
:10198000049A01201870A840B368DBF80050134493
:1019900025EA0000B9F1000FCBF80000B36003980E
:1019A0005E4B04F00F0480F28380BAF1000F77D011
:1019B000C3F8A006C3F8A426FFF738FCA30024B29E
:1019C0006200574D574E002840F08480B9F1000F57
:1019D000AABF354604242824534FDFF854811C4401
:1019E000154406463E60BFF36F8FBFF34F8F20460E
:1019F000FFF7E4FB0220FFF7C5FB3B68002BF1D0AB
:101A00001E20FFF7BFFBD8F800309B0660D50120F1
:101A1000FFF7B8FB2B8803F1804303F51C331B68E9
:101A2000002BDFD0009B059A1B689A4268D009F012
:101A3000F5FA90FAA0F0B0FA80F584E73749BAF1E8
:101A4000000F26D0D1F8C08418F4803F18BF4FF0A3
:101A5000000843467168376803A8B847039B002B0A
:101A600088D0049B434585D201204FF00208A8404E
:101A700086F80E80C043FFF7ADFD06238DF80830D1
:101A80002A4B8DF80A408DF80B801B6802A89847F6
:101A90004CE704F00F0303F5947351F82380D8E763
:101AA000142101FB0433C3F80006C3F8042683E7BE
:101AB000BAF1000F04D0C3F8A007C3F8A4277BE74E
:101AC000142101FB0433C3F80007C3F8042773E7AC
:101AD000022096E7B9F1000FB4BF0420282015EAD0
:101AE000290538BF35461844FFF768FB35F8143030
:101AF00003F1804303F51C331A68002AFCD091E7F8
:101B000007B0BDE8F08F00BFB036002051190020AB
:101B100074000020E40000201C7C024000700240A1
:101B200030B8000042B800000471024008020020F2
:101B30007474024073B51C4D2B6801931B4BD3F892
:101B40006C44C3F86C44BFF36F8FBFF34F8FFFF744
:101B50006DFB38B9164A136823F0011103F0011325
:101B60000C43136001262CB9019A2B689A4215D0B8
:101B700009F054FA94FAA4F3B3FA83F30F2BD9B211
:101B8000C4BFA3F11000C0B206FA03F3D8BF41F0FE
:101B9000800024EA0304FFF7CDFCE4E702B0BDE8CF
:101BA0007040FFF7B5BE00BFB036002000700240A5
:101BB0000C02002073B51B4E044633680193FFF7F7
:101BC000EBFB2046FFF7B4FB837B032B10D12046B1
:101BD000FFF7CAFB012303FA00F0C043FFF7FAFC4A
:101BE000FFF796FE019A33689A4219D009F016FA67
:101BF0000568002DF4D12046FFF7B6FB012303FA58
:101C000000F0C043FFF7E6FC06238DF80030064BDA
:101C10008DF802408DF803501B6868469847DFE74F
:101C200002B070BDB03600200802002007B5074B97
:101C30001A680192019A1B689A4201D009F0EEF9E4
:101C4000072003B05DF804EBFFF7B4BFB036002007
:101C500007B5074B1A680192019A1B689A4201D096
:101C600009F0DCF9062003B05DF804EBFFF7A2BF32
:101C7000B036002007B5074B1A680192019A1B681D
:101C80009A4201D009F0CAF9052003B05DF804EBCF
:101C9000FFF790BFB036002007B5074B1A680192D6
:101CA000019A1B689A4201D009F0B8F9042003B0E8
:101CB0005DF804EBFFF77EBFB036002007B5074B99
:101CC0001A680192019A1B689A4201D009F0A6F99C
:101CD000032003B05DF804EBFFF76CBFB0360020C3
:101CE00007B5074B1A680192019A1B689A4201D006
:101CF00009F094F9022003B05DF804EBFFF75ABF36
:101D0000B036002007B5074B1A680192019A1B688C
:101D10009A4201D009F082F9012003B05DF804EB8A
:101D2000FFF748BFB036002007B5084B08491A68CE
:101D3000019200220A6007490A70019A1B689A42C0
:101D400001D009F06BF903B05DF804FBB036002058
:101D5000080200205219002073B5564D2B680193DC
:101D6000554B4FF40062C3F80024BFF36F8FBFF3ED
:101D70004F8FFFF75BFA514CB0B14FF02003EFF3F8
:101D8000118083F31188BFF36F8F21684C4B0322BE
:101D9000002940F0848049F2753121601A60216089
:101DA00080F31188BFF36F8F4FF02003EFF31180A2
:101DB00083F31188BFF36F8F2168424AC023002943
:101DC0006FD149F2753121601360216080F3118871
:101DD000BFF36F8F384B0121C3F80015BFF36F8F2E
:101DE000BFF34F8FD3F800140905FBD54FF4006102
:101DF000C3F80014BFF36F8FBFF34F8F4FF0200372
:101E0000EFF3118083F31188BFF36F8F21680029EE
:101E100049D149F2753323601160236080F3118842
:101E2000BFF36F8F284B40F2E3721A6004334022F5
:101E30001A60BFF36F8FBFF34F8FA3F60403002622
:101E40008022C3F81C25C3F83065204B40F2FF12F6
:101E50001A601F4B1E60FFF79FFA1E4B1E701E4B31
:101E600002221A70FFF7E2F998B14FF02003EFF366
:101E7000118083F31188BFF36F8F2168104BA9B9CC
:101E800049F2753222601960226080F31188BFF335
:101E90006F8F019A2B689A420AD009F0BFF81A6036
:101EA0007EE7136092E700231360B7E71E60ECE75C
:101EB00002B070BDB03600200070024000EC064059
:101EC00014ED064014EC064000780240E4000020C7
:101ED00074000020531900205219002037B5134C0C
:101EE00022680192124A00211170D0B9FFF79EF9C1
:101EF000104B114A00280CBF184610460F4DC5F86C
:101F00000403272005F012FB0123C5F80435BFF3B5
:101F10006F8FBFF34F8F019A23689A4203D009F065
:101F20007DF80448EAE703B030BD00BFB0360020BA
:101F3000501900200714E0010714C001007002408E
:101F400007B5094B1A680192084A1078019A1B6874
:101F5000012894BF002001209A4201D009F05EF8C8
:101F600003B05DF804FB00BFB0360020521900201A
:101F700037B5074C236801930D46FFF7D9F9019A4D
:101F8000236885819A4201D009F048F803B030BD3A
:101F9000B03600202DE9F341214D2B680193214BF0
:101FA0001C78002C37D1204A106001221A70264676
:101FB0002746F3B213F0080F43F080080CBF40210E
:101FC0004FF400714046FFF7D3FF4046FFF7B0F9EA
:101FD0000136092E877307608760EAD14021002609
:101FE0002046FFF7C5FF2046FFF7A2F90134E4B20F
:101FF000092C86730660866006D10C48019A2B680E
:102000009A420AD009F00AF814F0080F14BF4FF4EE
:1020100000714021E4E70648F0E702B0BDE8F08136
:10202000B036002052190020080200200000AD0B3D
:102030000500AD0B2DE9F74F374E33680193054688
:102040008A464FF02003EFF3118883F31188BFF322
:102050006F8F10F00F0903D1304B1B78834254D19E
:102060002F4A304B14681F682846FFF77DF9E44378
:10207000A4B24FF0010B3C430BFA00FB294B14EACE
:102080000B0F1C4643D12846FFF752F90C232A06B2
:10209000844603FB09F334D5234ADAF800101344CD
:1020A00001F06041DAF80820B1F1005F02F00102AE
:1020B00022D1FAB91D4ACCF800209AE8070083E83B
:1020C0000700CCF804300023CCF808308CF80E3030
:1020D000174B184847EA0B0780222760C3F80421F2
:1020E00088F31188BFF36F8F019A33689A4210D03A
:1020F00008F094FF104ADEE70AB9104ADBE7104AFD
:10210000D9E7104A1344104AD5E71048E8E71048C9
:10211000E6E703B0BDE8F08FB03600205319002089
:10212000E40000207400002078000020B1120000BC
:1021300000E100E00000AD0BED1200002D140000E6
:102140008114000008000020691200000A00AD0B95
:102150000B00AD0B37B5104C236801930D46FFF70C
:10216000E7F84FF02002EFF3118382F31188BFF3F9
:102170006F8F82682A60026852B9807B83F311886E
:10218000BFF36F8F019A23689A4203D008F046FF8D
:102190000420F3E703B030BDB036002007B50A4B8A
:1021A0001A680192094A40F48070C2F81805BFF31A
:1021B0006F8FBFF34F8F019A1B689A4201D008F0CE
:1021C0002DFF03B05DF804FBB03600200070024024
:1021D00007B5124B10F0080F1A6801921A4618D171
:1021E00000F00F0310F0800F0D490BBF03F588734B
:1021F00003F5847301EB830351F8230008BF58688B
:10220000431E5842584101991368994203D008F07F
:1022100005FF0020F7E703B05DF804FBB0360020AF
:102220000070024037B5164D08222B68019300213B
:10223000044605F0A7FD134BD3F880242270D3F891
:1022400084246270D3F88824D3F88C1442EA0122E3
:102250006280D3F89024D3F8941442EA0122A28039
:10226000D3F89824D3F89C3442EA0323E380019AFC
:102270002B689A4201D008F0D1FE03B030BD00BFF8
:10228000B03600200070024037B5114C236801932E
:10229000FEF7CCFF80B9EFF3108572B64C20FEF745
:1022A0008DFF4C20FEF78AFF85F31088019A236882
:1022B0009A420BD008F0B2FE019A23689A42F9D1F3
:1022C0004C2003B0BDE83040FEF778BF03B030BD0E
:1022D000B036002037B5144C23680193FFF75CF843
:1022E000124B9A7B032A09D16FF48030FFF772F901
:1022F000019A23689A4214D008F090FE1D686DB9C7
:102300006FF48030FFF766F906238DF80030084B34
:10231000ADF802501B6868469847E9E7FFF7B4FF3D
:10232000E6E703B030BD00BFB0360020E800002073
:102330000802002007B5074B1A680192019A1B6832
:102340009A4201D008F06AFE502003B05DF804EB19
:10235000FEF734BFB036002007B5074B1A6801926C
:10236000019A1B689A4201D008F058FE542003B02D
:102370005DF804EBFEF722BFB036002007B5074B2F
:102380001A680192064A1078019A1B689A4201D095
:1023900008F044FE03B05DF804FB00BFB036002037
:1023A0005319002073B5284E336801930446FEF795
:1023B0003DFF05462046FEF7D7FF012303FA00F054
:1023C000C0433346214AF5B94FF02001EFF311869F
:1023D00081F31188BFF36F8F116804F00F04084078
:1023E000106064001A4A04F2C57414605560043227
:1023F000126886F31188BFF36F8F019A1B689A42A7
:102400001FD008F00BFE4FF02001EFF3118581F390
:102410001188BFF36F8F1168084014F00801106035
:102420000AD104F00F0404F594740A4A42F8241007
:10243000BFF36F8FBFF34F8F85F31188BFF36F8F9B
:10244000DBE702B070BD00BFB0360020E400002022
:102450000078024000700240F7B53D4D2B680193B3
:1024600004464FF02003EFF3118683F31188BFF386
:102470006F8FFEF75DFF07462046FEF775FF0123CD
:1024800014F0800F03FA00F032491BD10B6830EAD8
:1024900003020ED02046FFF785FF0323BB7386F3AC
:1024A0001188BFF36F8F019A2B689A424DD008F0C4
:1024B000B5FD3A60C043284A03400B6013680340EF
:1024C0001360EAE7230715D4802CDFF898C0234B6C
:1024D00030D004F00F02520002F2B472CCF80020A7
:1024E0001A68D3F800C0D2B242F0020242EA0C02EB
:1024F0001A601B68DFF860C00A68DCF8003062EA26
:10250000030E1EEA000FCAD022EA0002184300237D
:102510000A603B600323BB738DF80330104BCCF88B
:10252000000006228DF800208DF802401B686846E6
:102530009847B4E740F2B472CCF800201A68D3F898
:1025400000C0D2B242F00402D0E703B0F0BD00BF39
:10255000B036002074000020E4000020047802401F
:1025600008020020007802402DE9F743DFF8889048
:102570001C4DD9F8003001931B4B1C4FD3F88064DD
:102580002B6897F80080DC43194B1B68A4B24046C7
:102590001C43FEF7E9FE012303FA00F0204202D0BB
:1025A0004046FFF759FF06F080066FF001103E70BD
:1025B000FFF710F82B6843F001032B600023009312
:1025C00005238DF800300B4B68461B689847019A2D
:1025D000D9F800309A4201D008F020FD03B0BDE8E0
:1025E000F08300BFE4000020007002405319002077
:1025F0007400002008020020B03600202DE9F743C7
:10260000614D2B680193614BD3F80463002432467B
:1026100027460120002A40F08780FEF707FE0028A9
:1026200070D15B4B1B78002B6CD1A7026AD5594A3D
:10263000584FDFF86CC140F2A9731360564B18680D
:1026400010F0FF001CBF1968084040F2AA71116029
:10265000196811F0FF011CBF1A68114040F2AB72FB
:102660003A601A6812F0FF02BE461CBF1F683A406B
:1026700040F2AC77CEF800701F6838400AD0DCF822
:1026800000700743CCF8007040F2A977CEF80070D4
:10269000186018683F4F40F2AD703860186801400C
:1026A0000AD0DCF8000040EA0140CCF8000040F21B
:1026B000AA70386019601968364940F2AE70086037
:1026C00019680A400DD0D00748BF44F40004D10671
:1026D000304940F2AB7008601A601B6848BF44F094
:1026E0000104DCF8003033F001121CBF06F08071E9
:1026F0000C4313F0011F05D0730544BFCCF8002034
:1027000044F48064DFF89C8004F400074FF0010972
:1027100024F4000414BBFFF7FBF8019A2B6877B38D
:102720009A4227D008F07AFC92FAA2F31B49B3FA36
:1027300083F34FEA830C6144D1F800C0BCF1000F71
:1027400007D00F60BFF36F8FBFF34F8F00FA03F115
:102750000C4300FA03F322EA03025BE794FAA4F6BF
:10276000B6FA86F658F8263009FA06F6984724EAAB
:102770000604CFE703B0BDE8F043FFF7F5BE9A4289
:10278000D0D103B0BDE8F083B03600200070024025
:102790005119002000780240047802400071024084
:1027A0000C020020ECB600002DE9F341164E17494B
:1027B0003468174F09683B680193240C24040C43C8
:1027C0004FF0010844B940F2FF13019A33603B68AF
:1027D0009A4215D008F022FC94FAA4F5B5FA85F5D2
:1027E0000F2DC6BFA5F11000C0B245F08000030751
:1027F00001D4FFF731FE08FA05F524EA0504E1E704
:1028000002B0BDE8F08100BFE400002074000020A9
:10281000B036002037B5124C23680193114B80224B
:10282000C3F88421272004F0C1FE80B10E4DFFF7CC
:10283000BBFF0023C5F80435BFF36F8FBFF34F8F85
:10284000272004F091FE4FF0FF33C5F80833019ABA
:1028500023689A4201D008F0E1FB03B030BD00BF0D
:10286000B036002000E100E00070024013B50F4CCC
:1028700023680193FFF7CEFF0D4BD3F80423C3F871
:1028800008230022C3F80025BFF36F8FBFF34F8FDB
:10289000FEF782FD074B01221A70019A23689A42C3
:1028A00001D008F0BBFB02B010BD00BFB036002065
:1028B000007002405219002073B5184C2268019232
:1028C0004FF02002EFF3118682F31188BFF36F8F70
:1028D000134A127802F0FF055AB9002586F31188D1
:1028E000BFF36F8F019A23689A42284614D008F0EC
:1028F00095FBFFF759FF0B4AD2F8003413F400732D
:10290000EBD10121C2F82C15D2F80014890544BF7F
:10291000C2F82C351D46E1E702B070BDB03600208C
:1029200050190020007002402DE9F7432C4F2D4A2A
:102930003B6801932C4B2D4E4FFA80F813EA280385
:1029400038BF134600F00F09012413F8093004FAC8
:1029500003F3C6F804330546FEF74AFC002835D1D8
:10296000B8F1000FB4BFD6F81035D6F8143504FA14
:1029700009F4B5BF1C431C43C6F81045C6F81445FE
:10298000BFF36F8FBFF34F8FB9F1000F1ED0B8F1B7
:10299000000F1BDB2B0719D44FF02003EFF311843A
:1029A00083F31188BFF36F8F2846FFF7FBFC28469F
:1029B000FEF7DAFC0E4A012303FA00F0136823EA5B
:1029C0000003136084F31188BFF36F8F019A3B6893
:1029D0009A4201D008F022FB03B0BDE8F08300BFAB
:1029E000B0360020A2B8000099B800000070024084
:1029F0007400002037B5104C22680192020605468B
:102A00000AD4030708D400F00F0292000B4B9B5826
:102A1000012B01D1FFF7C6FC094BC3F81855BFF3D2
:102A20006F8FBFF34F8F019A23689A4201D008F04D
:102A3000F5FA03B030BD00BFB03600204474024048
:102A40000070024007B5074B1A6801920022C0E9E6
:102A50000022019A1B689A4201D008F0DFFA03B005
:102A60005DF804FBB036002007B50A4B1A680192E6
:102A700002684AB90160002241600A60019A1B683D
:102A80009A4204D008F0CAFA42681160F3E703B032
:102A90005DF804FBB036002007B5064B00681A68E5
:102AA0000192019A1B689A4201D008F0B7FA03B06C
:102AB0005DF804FBB036002007B5084B1A68019298
:102AC00002680AB1116801601046019A1B689A42B7
:102AD00001D008F0A3FA03B05DF804FBB036002083
:102AE00007B5074B1A680192019A1B689A424FF08A
:102AF000000001D008F092FA03B05DF804FB00BFBB
:102B0000B036002013B50D4C0D4823680193002208
:102B10006946009206F0DCFE10B100F09DFB0090CB
:102B2000009818B10123436000230381019A2368B0
:102B30009A4201D008F072FA02B010BDB0360020FF
:102B4000F002002007B5074B1A680192019A1B6832
:102B50009A4201D008F062FA03B05DF804EB04F089
:102B600093BA00BFB036002030B5104D10492B6825
:102B7000104889B0002407930E234FF44072CDE92A
:102B80000243CDE904440C4BCDE9004408F032F98E
:102B90000A49084808F0C2F8079A2B689A4220466A
:102BA00001D008F03BFA09B030BD00BFB0360020BC
:102BB000D01B00208002002069300000ABB800006C
:102BC00013B50F4C2368019300F010FB0D48FFF77D
:102BD00039FF042328220C490C4806F05BFE0C4BFD
:102BE0000C4A1A60019A23689A4201D008F016FA3A
:102BF0004FF4004002B0BDE8104000F0E3BF00BF5A
:102C0000B03600205C020020103200206402002058
:102C1000BC360020452B00002DE9F341154E3268EB
:102C20000192154ABFF35B8F002552E8007F42E80E
:102C30000053002BF9D1BFF35B8F104C104A121BCD
:102C40004FEA2218454505DB019A33689A420DD0B8
:102C500008F0E4F963685B792BB12368DB6813B192
:102C600039462046984701351034EBE702B0BDE8FD
:102C7000F08100BFB03600205402002084B600006E
:102C800094B600002DE9F743294B1A680192294AAE
:102C900012780546984602B960B34FF02003EFF36F
:102CA000118483F31188BFF36F8F2348FFF704FF6C
:102CB000814684F31188BFF36F8F78B1BFF35B8FC8
:102CC0001E4B53E8002F013A43E800210029F8D1B8
:102CD000BFF35B8FB5B1484600F05CFB25B9184BDC
:102CE0001B680BB1FFF798FF1348FFF7D5FE051CD3
:102CF00018BF0125019AD8F800309A42284613D00F
:102D000008F08CF90F4C104E361B36112F46B74287
:102D1000E1DA63685B7923B1236849461B68204682
:102D2000984701371034F2E703B0BDE8F08300BFE5
:102D3000B0360020541900205C0200205002002010
:102D40005402002084B6000094B60000F7B5284C69
:102D5000418123680193274B274D1B6806469847FE
:102D6000F060BFF35B8F55E8003F013345E8003268
:102D7000002AF8D1BFF35B8F4FF02003EFF31187E8
:102D800083F31188BFF36F8F1C483146FFF76CFE49
:102D900087F31188BFF36F8F194B1B782646A3B1B9
:102DA0004FF02003EFF3118483F31188BFF36F8F8B
:102DB0000020FFF767FF84F31188BFF36F8F019A3C
:102DC00033689A420CD103B0F0BD2B680A2BF6D1C0
:102DD0000C4B18680028F2D0019A23689A4201D05F
:102DE00008F01CF903B0BDE8F04007F063BE00BF77
:102DF000B0360020BC360020500200205C020020CB
:102E000055190020EC02002073B50D4C2368019386
:102E100006460D46FFF776FE60B1019A236806610B
:102E20009A4201D008F0FAF8294602B0BDE8704095
:102E3000FFF78CBF019A23689A42F3D102B070BDAC
:102E4000B0360020F7B5114C2368019305460F46B4
:102E50001646FFF757FE90B10561457A476101229A
:102E600062F307154572019A23689A4201D008F06F
:102E7000D5F8314603B0BDE8F040FFF767BF019ACF
:102E800023689A42F3D103B0F0BD00BFB0360020F2
:102E90002DE9F743124D1F462B68019306468946DC
:102EA0009046FFF72FFE98B10661467A022363F33E
:102EB00007164672019A2B689A42C0E9059801D01C
:102EC00008F0ACF8394603B0BDE8F043FFF73EBF69
:102ED000019A2B689A42F3D103B0BDE8F08300BF9A
:102EE000B036002007B50C4B1A6801920B4ABFF3AD
:102EF0005B8F52E8001F013142E800100028F8D132
:102F0000BFF35B8F019A1B689A4201D008F086F8E4
:102F100003B05DF804FB00BFB0360020540200206F
:102F200007B50A4B0A481A6801920A4A121AB1EB0D
:102F3000D20F019A1B6834BF50F8310000209A422A
:102F400001D008F06BF803B05DF804FBB036002048
:102F500034B6000084B6000013B50B4A4468136809
:102F600001930A4BC31A1B1101332371406801609E
:102F7000074901230B70437101991368994201D0ED
:102F800008F04CF802B010BDB036002084B6000046
:102F900054190020F7B5164F3B680193154BBFF34A
:102FA0005B8F53E8005F6A1C43E800210029F8D1D9
:102FB000BFF35B8F2DB9104C104E361B3611B54246
:102FC00005DB019A3B689A420FD008F027F8237B73
:102FD00043B123685B6903B198470422002120466E
:102FE000FFF7BAFF01351034E9E703B0F0BD00BFC9
:102FF000B03600205802002084B6000094B60000CD
:103000002DE9F341144F3B680193144B1D7898460A
:103010007DB9134C134EFFF7BDFF361B3611B54279
:103020000DDB0020FFF72EFE0028FAD1012388F8DF
:103030000030019A3B689A420BD007F0EFFF6368BB
:103040005B791BB1236820461B6998470135103412
:10305000E5E702B0BDE8F081B03600205519002048
:1030600084B6000094B6000007B50D4B1B680193B1
:10307000FFF790FF07F054FD0A4A106028B10A4B91
:103080001B68092B01DD07F015FD0020FFF7FAFD95
:103090000028FAD14FF47A7007F0B2FCF5E700BFD0
:1030A000B0360020EC0200205002002007B50B4B88
:1030B0001A6801920A4A90420AD3783290428CBF31
:1030C00000200120019A1B689A4203D007F0A6FF56
:1030D0000020F7E703B05DF804FB00BFB036002026
:1030E0001432002013B50F4C04382268019200906E
:1030F000BFF35B8F50E8002F531E40E800310029DA
:10310000F8D1BFF35B8F012A03D16946064806F068
:1031100017FC019A23689A4201D007F07FFF02B0A2
:1031200010BD00BFB0360020640200202DE9F34737
:103130000E462D499DF828801C460B680193038993
:103140009B08A342894608D800231360019AD9F846
:1031500000309A4245D007F061FF1168214499423E
:1031600084BF191B11600C2BD2F800A02AD9072CA0
:1031700047692DD818300823534528BF53461D46AC
:1031800020441A46B8F1000F1FD0314604F0C4FDA8
:10319000AAEB050A2E44BAF1000FD7D0C4F11C05E2
:1031A000554528BF5546201D38442A46B8F1000F22
:1031B00014D0314604F0B0FDAAEB050A3F682E4456
:1031C0000024E8E714300027D6E701463046DDE763
:1031D000083C1B2CDFD93F681C3CFAE7014630460F
:1031E000E8E702B0BDE8F087B036002007B5094B2C
:1031F0001A680192019A1B689A4201D007F00EFFEB
:103200002023054905481A4603B05DF804EB06F093
:1032100041BB00BFB0360020B0320020F0020020D9
:1032200007B50C4B1A6801920430BFF35B8F50E86E
:10323000002F013240E800210029F8D1BFF35B8F55
:10324000019A1B689A4201D007F0E8FE03B05DF8CE
:1032500004FB00BFB036002073B50E4C0E4E226842
:103260000192002200920120FFF70CFD0546FFF7B6
:1032700039FE00226946304606F02AFB08B1002DCF
:10328000F1D1019A236800989A4201D007F0C6FE56
:1032900002B070BDB0360020F002002007B5074B29
:1032A000407A1A680192019A1B689A424FEA1010FC
:1032B00001D007F0B3FE03B05DF804FBB036002088
:1032C00013B5447A134B24091A6801928C421A46AA
:1032D0001BD9032C08D800EB8101486901991368B8
:1032E000994214D007F09AFE012903D800EB81011E
:1032F0008869F3E743690239062903D803EB8101A2
:103300004868EBE707391B68F6E70020E6E702B0FC
:1033100010BD00BFB0360020F0B51C4E047A457ACF
:10332000326885B014F00104019003924FEA15153C
:1033300012D0019B1A7A920704D55B69144C029350
:10334000029BD3B901A9124806F0FAFA039A33682E
:103350009A4219D007F062FE002DEAD0A5420198EA
:10336000E7D92146FFF7ACFF0746FFF79FFE10B1F4
:103370003846FFF7B7FE0134F0E71D6802A9204682
:1033800006F0DEFA0295DBE705B0F0BDB0360020AE
:10339000F002002007B5134B196801910246011D88
:1033A000BFF35B8F51E800CF0CF1FF3C41E800CE4A
:1033B000BEF1000FF6D1BFF35B8F526852B9019A8C
:1033C0001B689A4201D007F029FE03B05DF804EBB8
:1033D000FFF7A2BF019A1B689A42F4D103B05DF8CF
:1033E00004FB00BFB036002007B5064B00691A6821
:1033F0000192019A1B689A4201D007F00FFE03B0B8
:103400005DF804FBB036002030B5084C85B0256867
:10341000039500250095FFF789FE039A23689A42D9
:1034200001D007F0FBFD05B030BD00BFB036002075
:103430002DE9F3410B4C98462368019307460E464D
:103440001546294630464246B8472D1A0644F8D15B
:10345000019A23689A4201D007F0E0FD02B0BDE86E
:10346000F08100BFB03600200EB417B50B4C05AB91
:10347000216853F8042B0191014609480093FDF798
:103480008BFB019A23689A424FF0000001D007F0AD
:10349000C5FD03B0BDE8104003B07047B036002052
:1034A000193A00002DE9F04FDFF8D0B291B00EAF1D
:1034B000DBF800307B6081460D46FFF795FF06463E
:1034C0004846FFF7EBFE8300073323F00703ADEB1D
:1034D000030D82460EAC4FF00008D04516D1484689
:1034E000FFF7DCFE0F281ED8DFE810F019002500DA
:1034F0002B0032003B004600530062007300860040
:103500009B00B200CB00E600030122014146484681
:10351000FFF7D6FE44F8280008F10108DDE7314640
:103520002846FFF7A1FF7A68DBF800309A4200F0E6
:10353000208107F073FD226831462846FFF794FF8B
:10354000F1E7D4E9002331462846FFF78DFFEAE78B
:10355000A3680093D4E9002331462846FFF784FF8F
:10356000E1E7E3680193A3680093D4E900233146BF
:103570002846FFF779FFD6E723690293E3680193B2
:10358000A3680093D4E9002331462846FFF76CFF77
:10359000C9E76369039323690293E3680193A3680E
:1035A0000093D4E9002331462846FFF75DFFBAE7D0
:1035B000A36904936369039323690293E368019306
:1035C000A3680093D4E9002331462846FFF74CFF57
:1035D000A9E7E3690593A3690493636903932369E6
:1035E0000293E3680193A3680093D4E90023314672
:1035F0002846FFF739FF96E7236A0693E3690593A8
:10360000A36904936369039323690293E3680193B5
:10361000A3680093D4E9002331462846FFF724FF2E
:1036200081E7636A0793236A0693E3690593A369B5
:1036300004936369039323690293E3680193A36886
:103640000093D4E9002331462846FFF70DFF6AE7CF
:10365000A36A0893636A0793236A0693E369059351
:10366000A36904936369039323690293E368019355
:10367000A3680093D4E9002331462846FFF7F4FEFF
:1036800051E7E36A0993A36A0893636A0793236A7D
:103690000693E3690593A36904936369039323691C
:1036A0000293E3680193A3680093D4E900233146B1
:1036B0002846FFF7D9FE36E7236B0A93E36A09939E
:1036C000A36A0893636A0793236A0693E3690593E1
:1036D000A36904936369039323690293E3680193E5
:1036E000A3680093D4E9002331462846FFF7BCFEC7
:1036F00019E7636B0B93236B0A93E36A0993A36A3D
:103700000893636A0793236A0693E3690593A369A1
:1037100004936369039323690293E3680193A368A5
:103720000093D4E9002331462846FFF79DFEFAE6D0
:10373000A36B0C93636B0B93236B0A93E36A09935C
:10374000A36A0893636A0793236A0693E369059360
:10375000A36904936369039323690293E368019364
:10376000A3680093D4E9002331462846FFF77CFE86
:10377000D9E60C37BD46BDE8F08F00BFB03600205B
:103780002DE9F04F89B011F0020605923D4A9DF8EF
:1037900048801268079201F0010207469DF84CA08C
:1037A000BDF85090049201F0080507D011F0440FC5
:1037B00038D11A463449FFF757FE0646049B53B1E9
:1037C000324B334953F82820324B3846002A08BF81
:1037D0001A46FFF749FE3DB12F4B304953F82820D8
:1037E0003846FFF741FE0546059B002B44D00123D8
:1037F00003FA08F82A4B2B4C18F0100F18BF1C4680
:1038000049465046FFF78CFB214602463846FFF7F3
:103810002BFE1C4B079A1B6828449A4230442DD03B
:1038200007F0FCFB204A116821B3204A4FF4616C79
:103830001468B3FBF4F34FF47A76B3FBF1F4B4FB02
:10384000FCF20CFB124C01FB143474434FF03C0EA1
:10385000B4FBF1FB01FB1B44BCFBFEF37443B4FB64
:10386000F1F40EFB13C10091CDE901B41049FFF74B
:10387000FBFDA2E70846A0E70A4CC1E709B0BDE896
:10388000F08F00BFB0360020FDB8000050B7000038
:1038900022B90000EFB8000064B7000025B90000AD
:1038A000F9B80000F4B800000C0300201003002059
:1038B00006B900002DE9F3472A4E99460A9B904627
:1038C00032680192DA0604460F4605D49B064CBFC7
:1038D00025492649FFF7C8FDDFF898A000254D458A
:1038E0002CDBDFF89490DFF894A00025A8452BD9B5
:1038F0007A5D51462046FFF7B7FD0135082DF5D119
:103900001B49DFF87090DFF878A02046FFF7ACFD88
:103910000025A8451DD97A5DA2F120035F2B28BFA1
:103920002E2251462046FFF79FFD0135082DF0D18C
:10393000019A33689A4211D007F070FB5146204635
:10394000FFF792FD0135CAE749462046FFF78CFD97
:10395000D3E749462046FFF787FDE6E702B0BDE81A
:10396000F08700BFB0360020B4B80000B3B8000044
:10397000C0B80000BEB80000BCB80000B6B8000077
:10398000C2B8000073B5124C23680193CB070646FA
:103990000D4603D50F4A1049FFF766FDE806019A68
:1039A000236810D4A9060AD59A4201D007F036FB45
:1039B0000A49304602B0BDE87040FFF755BD9A4253
:1039C000F4D10749F5E79A42F0D102B070BD00BFCB
:1039D000B0360020EFB8000022B90000B4B80000F3
:1039E000B3B8000037B50B4D42682B68019304460D
:1039F000D2E9002381680068FFF71AFD636800229E
:103A00001A60019A2B689A4201D007F007FB03B0B5
:103A100030BD00BFB036002013B50D4C22680192B6
:103A2000D1E90123126898544868026801320260A3
:103A3000C868824202D10846FFF7D4FF019A236882
:103A40009A424FF0000001D007F0E8FA02B010BD32
:103A5000B03600202DE9F04F3C4F89B03B6807930A
:103A60008B7A13F00704904605460E460A7A1CD05E
:103A70004989C3F3C2038909D2430291CDE90043C6
:103A800002F00102F3684146FFF77AFE8246337A7C
:103A9000DA070CD429463046FFF704FD4CB3224622
:103AA00041462846FFF76EFF23E0A246EFE74CBBF6
:103AB000A046EB68049304AA4346A9683046FFF782
:103AC000A3FC049A6B681A603AB1AB68134413F80C
:103AD000014CA4F10A035C425C412846FFF782FFD7
:103AE000049B9844002BE4D11CB119492846FFF7E8
:103AF000BBFC2846FFF776FF079A3B689A4222D024
:103B000007F08CFA3046FFF76FFC12490246284650
:103B1000FFF7AAFC4FF000094FF0080B04AA4B4630
:103B200005A93046CDF810B0FFF76EFC049A002AC4
:103B3000B5D05346CDF8008005A92846FFF7BAFE58
:103B4000049B9944EAE709B0BDE8F08FB036002045
:103B5000C5B8000022B90000F0B5164E164A336809
:103B600085B00393D0E900435D6842F20F738B4246
:103B700028BF0B4601A8052104F0D6FD2B460746B9
:103B80000B220E492046FFF753FC2B463A4601A96B
:103B90002046FFF74DFC2B461B2209492046FFF724
:103BA00047FC039A33689A4201D007F037FA05B010
:103BB000F0BD00BFB0360020C5BD0000E3B8000076
:103BC000C7B8000037B50D4A0D49136801930D4D74
:103BD00001230B600024A84209D804B10B600A4BF2
:103BE000019918601368994205D007F017FA400848
:103BF0005B000124EFE703B030BD00BFB03600200A
:103C00001003002040420F000C0300202DE9F34177
:103C10000D4C1746226801920E46054600EB01083E
:103C2000454506D1019A23689A42304608D007F0EC
:103C3000F5F97B6815F8011B5B6838469847EFE794
:103C400002B0BDE8F08100BFB036002013B5084CCB
:103C500008482368019305F063FC074B019A5860FC
:103C600023689A4201D007F0D9F902B010BD00BF15
:103C7000B03600204BB900001C03002007B5074BED
:103C80001A680192019A1B689A4201D007F0C6F99E
:103C9000034803B05DF804EBFFF7A4BEB036002084
:103CA00090B7000007B5074B1A680192019A1B688C
:103CB0009A4201D007F0B2F9034803B05DF804EB73
:103CC000FFF74ABFB036002090B7000037B50C4D63
:103CD00008462B6801930C46FFF7A2FA0F222146F3
:103CE0000848FFF7B7FE019A2B689A4201D007F007
:103CF00095F9204603B0BDE83040FFF74BBB00BF4D
:103D0000B036002090B7000013B5094C094823686D
:103D1000019305F093FF084B019AC3E90033236830
:103D20009A424FF0000001D007F078F902B010BDC0
:103D3000B036002030030020280300202DE9F34195
:103D4000194E33680193804603F076FF4FF0FF3140
:103D50000746164805F086FF154B1C689C421D4619
:103D600013D10024114805F0F9FF019A33689A42F3
:103D7000204615D007F052F9A06803F05DFFB84265
:103D800006D06B689C42ECD02468002CF4D1E8E7A4
:103D90003A46A168404603F07FFF0028F1D1E1E7F1
:103DA00002B0BDE8F08100BFB03600203003002033
:103DB0002803002013B50E4C23680193FFF7BEFFC4
:103DC000214668B1C3685BB11B684BB10199226899
:103DD000914201D007F022F902B0BDE81040184727
:103DE000019A0B689A426FF01500F3D102B010BD32
:103DF000B036002013B50E4C23680193FFF79EFFE9
:103E0000214668B1C3685BB15B684BB10199226818
:103E1000914201D007F002F902B0BDE81040184706
:103E2000019A0B689A426FF01500F3D102B010BDF1
:103E3000B03600202DE9F743124C994623680193D0
:103E40000F469046FFF77AFF264688B1C5687DB1D8
:103E5000AD686DB1019A23689A4201D007F0DEF88F
:103E60004B4642463946AC4603B0BDE8F043604796
:103E7000019A33689A426FF01500EFD103B0BDE8A4
:103E8000F08300BFB03600202DE9F743124C99466D
:103E9000236801930F469046FFF750FF264688B1EE
:103EA000C5687DB1ED686DB1019A23689A4201D071
:103EB00007F0B4F84B4642463946AC4603B0BDE87D
:103EC000F0436047019A33689A426FF01500EFD1D2
:103ED00003B0BDE8F08300BFB0360020F7B5104C4A
:103EE000236801930E461746FFF728FF254678B151
:103EF000C3686BB11B695BB101992268914201D023
:103F000007F08CF83A46314603B0BDE8F040184758
:103F1000019A2B689A426FF01500F1D103B0F0BD01
:103F2000B036002037B5204D04462B681F4801935A
:103F30004FF0FF3105F096FE0CB1A068C8B901231F
:103F40004FF0000163F30701194A1A4B1A489B1AF4
:103F5000DB0863F38F11FEF757FF6FF0150413486A
:103F600005F0FCFE019A2B689A4220461AD007F011
:103F700055F8FFF7E3FE60B101234FF0000163F352
:103F800007010B4A0B4B0D489B1ADB0863F38F119B
:103F9000E1E70B4B23605A6862605A6814605C600A
:103FA0000446DCE703B030BDB0360020300300200B
:103FB00034B6000034B6000063B900007CB90000DC
:103FC0002803002007B5074B1A680192019A1B6865
:103FD0009A424FF0000001D007F020F803B05DF8DE
:103FE00004FB00BFB036002007B50F4B013918683D
:103FF0000190042912D8DFE801F0030C110F05002D
:10400000202111600020019A1B689A4209D007F014
:1040100005F84FF40071F4E70121F2E76FF01500A5
:10402000F1E703B05DF804FBB036002007B5074B9D
:104030001A680192019A1B689A4201D006F0EEFFBD
:10404000034803B05DF804EBFFF76CBFB036002007
:10405000C036002013B5094C20680190084800EBD9
:1040600042205A0203F058FE019A23689A424FF008
:10407000000001D006F0D2FF02B010BDB036002023
:10408000F436002013B50A4C08462168019109490D
:1040900001EB42215A0203F03FFE019A23689A4243
:1040A0004FF0000001D006F0B9FF02B010BD00BF14
:1040B000B0360020F436002007B5074B1A6801928D
:1040C000019A1B689A424FF0000001D006F0A6FF4B
:1040D00003B05DF804FB00BFB036002037B50C4BD1
:1040E0001C6801940B4CA46954B1019D1B689D424E
:1040F00001D006F093FF234603B0BDE830401847D7
:10410000019A1B689A426FF02200F2D103B030BDD1
:10411000B0360020440300202DE9F743114D124C26
:104120002B680193114B0F461B1B11499B10064630
:1041300001FB03F84FF00009C14505D1019A2B6836
:104140009A420BD006F06AFFE3681BB13A4631464B
:104150002046984709F101092C34EDE703B0BDE88A
:10416000F08300BFB0360020A0780020CC7800207B
:10417000A38B2EBA73B5144D144C2B68E2680193CF
:1041800006466B46A1680092802002F0C9FC009AA6
:10419000A3681344A360E3689B1AE3605BB9402AF9
:1041A00009D1402E07D900231A461946802002F073
:1041B000B7FC0B30F7D0019A2B689A4201D006F079
:1041C0002DFF02B070BD00BFB036002044030020B8
:1041D0002DE9F04FA64DA74E2B6887B0804605937A
:1041E00073690F4614468BB998F8009009F01F09BF
:1041F000B9F1010F00F0AB80B9F1000F10D0B9F1A7
:10420000020F00F0F6806FF0150002E098470028DA
:10421000EAD1059A2B689A4200F0268106F0FEFE4C
:1042200098F80120B8F802002368092AEBD801A108
:1042300051F822F05D4200003543000007420000C3
:104240004343000007420000774200008142000023
:1042500007420000B1420000BB420000002018707D
:10426000587096F84E20824214BF022202461A70FD
:1042700002233B60CDE7C0B202F0F8FA0020C8E7A5
:10428000020A131F012BBED9072ABCD8336A0021AA
:10429000C0B21E78002EB6D093F801C0944503D169
:1042A000884200F0DA8001313344F2E71B78D9E02C
:1042B00096F84D201A700123D4E0C4B28DF80B405B
:1042C0005CB14FF0FF08376AC1463B7843B9F369E8
:1042D0001BB10DF10B010320984786F84D40CDE747
:1042E0007B78042B08D0052B09D0022B01D197F83D
:1042F00005903B781F44E8E797F80380F9E79DF8BD
:104300000B304B45F5D1B8F1000FF2D1FB788DF8A9
:1043100010307A793B7943EA0223ADF80E30BB784E
:104320008DF80C3003A802F001FB9DF80C0002F0A0
:10433000CDFBDEE701287FF466AF002086F84E0053
:1043400067E701287FF45FAF86F84E0096E798F89C
:10435000010023680A2807D00B280AD000287FF420
:1043600052AF1870587083E700201870C7F800909B
:104370004FE798F804B098F80220346A4FF0FF082D
:10438000C2464FF0000923783BB9F36913B149469F
:1043900007209847002038603BE76378042B04D05F
:1043A000052B0CD023781C44EDE794F8028094F898
:1043B00003A0C345F6D1524508BFA146F2E7C34565
:1043C000F0D15245EED1E3788DF810306179237940
:1043D000019243EA0123ADF80E30A3788DF80C303A
:1043E00003A802F0A3FA9DF80C0002F06FFB019AFB
:1043F000D8E798F8013098F80400D4F800A08DF8B8
:104400000C00012B1AD05CB284B1032B7FF4FBAEFD
:10441000B8F80240002C7FF4F6AE02F0C7FAF36958
:10442000002B3FF42BAF03A9082014E0514602F003
:1044300027FB8AF80140C7F800901FE7B8F8024050
:10444000002C7FF4E0AE02F0F7FAF369002B3FF4A2
:1044500015AF03A90920984710E7022A23607FF4CB
:1044600025AF5B883B6009E707B0BDE8F08F00BF70
:10447000B03600204403002013B50E4C0E482368CC
:1044800001930378C3F3411300EB83035B6A63B1C9
:1044900000F1080200F110019847C043C00F019AD3
:1044A00023689A4203D006F0B9FD1846F7E702B038
:1044B00010BD00BFB03600204403002073B5364E57
:1044C0003268019200220B4600920546002858D11E
:1044D000324C61BB0822214602F046FC002808DA73
:1044E000802002F063FA019A33689A4251D006F0B4
:1044F00095FD2278E588C2F3411304EB8303586BE2
:10450000A06010B902F052FAEAE7C4E903550DB110
:10451000D309E8D0FFF7B0FF0028E1D02369AB4210
:10452000D4BFE360E5602846FFF724FEDBE7D4E96B
:104530000212002A6B4605DC024602F015FC002838
:10454000D1DACDE702F010FC002804DA802002F076
:104550002DFA2846C5E70099A268E3680A445B1A69
:10456000A260E360002BBED12378C3F3411304EBB8
:1045700083035B6BA360FFF77FFF0028B0D0E08868
:10458000D2E78028AFD1054BDA68002AABD0D888B3
:10459000CAE702B070BD00BFB0360020440300205F
:1045A00007B5134B1A680192014600F10802BFF3E8
:1045B0005B8F52E8000F40F0010C42E800CEBEF1E4
:1045C000000FF6D1BFF35B8FC007019A1B6809D4B7
:1045D0009A4201D006F022FD064803B05DF804EBD4
:1045E00005F0BABC9A42F5D103B05DF804FB00BFF8
:1045F000B0360020D01800202DE9F743434F10F8C3
:104600002C5C3B68019350F8283C1033044610D1D1
:10461000C36850F8202C99073ED512BB13F0040351
:1046200004D11A461946284602F07AFA002344F8C3
:10463000283C54F8283C10330DD054F8186C56B16F
:1046400054F81C8C54F8149C06F034FB00284ED00F
:104650002046FFF7A5FF019A3B689A4252D006F028
:10466000DDFC50F8241C6B46284602F059FA10B1C4
:104670006FF01503DBE7009A54F8243C134444F828
:10468000243C54F8203C9B1A44F8203C54F81C3C31
:10469000134444F81C3CCCE750F8241C6B462846D5
:1046A00002F0CAFA0028E3D1009E54F8243C3344B7
:1046B00044F8243C54F8203C9B1B44F8203C54F81C
:1046C0001C3C334444F81C3C002EAFD0284602F07A
:1046D000A3FBB6FBF0F303FB10600028A6D154F84F
:1046E000203C002BA2D0284602F0FAFAA1E744F8B9
:1046F000180CA4F1100006F039FA4A464146284643
:10470000B047A8E703B0BDE8F08300BFB036002093
:1047100037B513490A680192E8B1124B02681A6270
:10472000114A5A6203F144025A63026912B1C46920
:104730009C639A62426922B1046A0C4DDD62DC63BB
:104740009A61806908B158610020019A0B689A4209
:1047500004D006F063FC6FF01500F6E703B030BD3F
:10476000B036002044030020D1410000DD400000AD
:104770002DE9F043374D384E95F84C40336885B0FD
:1047800007460393002C4FD13448E86102F02EFB1A
:1047900000284ADB02F01EF8002846DB402301A86F
:1047A000ADF806308DF808408DF8044002F0BEF8F0
:1047B00000283ADB4FF0800801A88DF8048002F051
:1047C000B5F8002831DB2649204602F0EFFA002830
:1047D0002BDB2349404602F0E9FA002825DB97F855
:1047E0002430A34227D800271A4CDFF87890B84627
:1047F0000122C4E91F89C4F8848004F16C001146C9
:10480000013706F0A1F9042F04F13C04F0D1002097
:1048100002F05CF9002808DB802002F057F900283C
:1048200003DB012385F84C300020039A33689A4259
:104830000DD006F0F3FBBB6A03EBC40253F834104F
:10484000107902F0B3FA0028EFDB0134C7E705B0B6
:10485000BDE8F08344030020B03600201941000079
:10486000BD440000F945000037B5074C25680195A7
:10487000019D2468A54201D006F0D0FB03B0BDE83D
:10488000304002F04DB900BFB036002007B5074BED
:104890001A680192019A1B689A4201D006F0BEFB89
:1048A00003B05DF804EB02F081B800BFB036002021
:1048B00037B5074C25680195019D2468A54201D0B4
:1048C00006F0ACFB03B0BDE8304002F0B5B900BF64
:1048D000B036002007B5074B1A680192019A1B6891
:1048E0009A4201D006F09AFB03B05DF804EB02F0A7
:1048F000F7B900BFB036002007B5074B1A68019220
:10490000019A1B689A424FF0000001D006F086FB26
:1049100003B05DF804FB00BFB03600202DE9F04F76
:10492000894B8A4A1B688A4E89B000250793894BB8
:104930009B1A894A9B1053430093884BF61A0446EE
:10494000C6F3C9064FF0011AA946A8462F46237898
:1049500073B9834AA01C904200F0F180FFF7DEFF9C
:10496000794B079A1B689A4200F0EB8006F056FBE1
:104970006378052B05D8DFE803F09A04039A0798BB
:10498000274623781C44E2E7E378002BF9D1A3788B
:10499000E3B96E4A1046009999420BD101234FF0BA
:1049A000000263F3070266F38F1221466D48FEF79B
:1049B00049FA2DE02C3252F8281C8C420BD14FF0D2
:1049C0002C0808FB0308D8F8083033B909F10109AD
:1049D0005FFA89F9D5E70133DDE749462046984774
:1049E000F4E7D8F82810A07801EBC2010B799842BF
:1049F00011D0013298F824309A42F2DB4FF00001D6
:104A0000012363F30701584866F38F11FEF7FCF9A1
:104A10004FF0FF30A4E7012394F803C08DF818C0CD
:104A200094F805E094F804C04CEA0E2CADF816C0DA
:104A300094F802C08DF814C01CF0800FD8B229D0B1
:104A400003F1100C4FF0010E0EFA0CFC1CEA0A0FD9
:104A500027D160F07F008DF8140005A8CDE902137E
:104A6000019201F021FFDDE90121039BC8B99DF806
:104A70001420A27012F0800F0A7118BF10334FF08B
:104A8000010215BF9A4002FA03F34AEA020A4AEA0F
:104A9000030A76E74FF0010C0CFA03FC1CEA0A0F3C
:104AA000D9D00133102BB7D1A3E70022A2E7032D01
:104AB0002AD1FFF721FF0290A8B103F0BDF80190C1
:104AC0002A4803F0B9F8019A0299824218D02BF0D3
:104AD0003F0343F0010363F3070B66F38F1B594653
:104AE0002348FEF791F923786FF00201E218091BC1
:104AF00004EB53030020D14212D50135EDB240E75B
:104B0000A01C03F009F9EEE7002DECD17FB94FF0BE
:104B10000001012363F3070166F38F11154875E760
:104B200002F8010C13F801C902F802CDE3E7E31B18
:104B3000BB70C3F30723FB7087F80490DDE71846CA
:104B40000EE709B0BDE8F08FB0360020A078002055
:104B500064B60000CC780020A38B2EBA34B60000D7
:104B6000A078002054BA0000C3B90000E0B90000EA
:104B7000EDB9000037BA000013B5104C1048236897
:104B80000193FFF7CBFEA0B101234FF0000163F3C7
:104B900007010C4A0C4B0D489B1ADB0863F38F117D
:104BA000FEF732F90020019A23689A4203D006F0FA
:104BB00035FA0348F7E702B010BD00BFB036002059
:104BC0001C78002034B6000064B6000074BA0000FF
:104BD00007B5074B1A680192064A9170019A1B6843
:104BE0009A4201D006F01AFA03B05DF804FB00BF48
:104BF000B03600203778002013B5154C15492368CE
:104C000001931548552342220B7053234B708A7031
:104C1000CB700D220023007BFFF726FE68B1012335
:104C20004FF0000163F307010C4A0D4B0D489B1A2E
:104C3000DB0863F38F11FEF7E7F80B4B04221A70C1
:104C4000019A23689A4201D006F0E8F902B010BD3B
:104C5000B036002076190020D036002034B600008F
:104C600074B60000B2BC0000C51B002013B5294C6F
:104C7000294A236801932948D2F8113000681BBAE9
:104C80005902814219D301234FF0000163F3070158
:104C9000234A244B24489B1ADB0863F38F11FEF749
:104CA000B3F8224B01221A73FFF7A6FF0020019AE6
:104CB00023689A422BD006F0B1F91D480160D17BE0
:104CC0002F2904D007D8282901D02A2907D1D38A2F
:104CD0005BBA9BB203E0A82913D0AA2911D01549C9
:104CE0005B020B6091680029DBD08B420DD092F9FA
:104CF0000C30002B104BB4BF187B1879FFF7C6FDA2
:104D0000CFE7D2F815301BBAE9E70120CFE702B0B0
:104D100010BD00BFB036002057190020100500203C
:104D200034B6000074B6000093BA00007619002073
:104D300084040020A0040020D036002013B5104CBD
:104D40001048236801931F22002103F01BF80D2255
:104D500000210D4803F016F84FF4007200210B48B3
:104D600003F010F80A4A002313600A4A1360019AFC
:104D700023689A4201D006F051F902B010BD00BF7D
:104D8000B03600205719002076190020C5190020E0
:104D900084040020A004002007B50D4B01291A68E7
:104DA00001920DD10B4A00211170019A1B689A42A1
:104DB00001D006F033F903B05DF804EBFFF7BEBF96
:104DC000019A1B689A42F4D103B05DF804FB00BF5E
:104DD000B0360020C51B002037B5144B85881C68F1
:104DE0000194134CA478A5421C4619D14388BBB941
:104DF0004578FE2D0BD0FF2D12D1C08880B90D4B08
:104E00001870019A23689A420DD006F007F9C088FD
:104E1000012805D1084D2B70156008601846F0E791
:104E20006FF01500EDE703B030BD00BFB0360020D5
:104E300037780020C51B0020C319002037B5194C56
:104E400023680193184B9B6899420D4628BF9DB279
:104E50000146164B164803221A70007B00232A468F
:104E6000FFF702FDA0B101234FF0000163F307013A
:104E7000104A114B11489B1ADB0863F38F11FDF7A1
:104E8000C3FF0020019A23689A4208D006F0C6F8B2
:104E90000B4B9A681873551B9D600120F2E703B015
:104EA00030BD00BFB036002057190020C51B0020C0
:104EB000D036002034B6000074B60000CCBC000030
:104EC00076190020F7B5254D254E2B683468254FFF
:104ED0000193254B39681B68402C28BF40240A19D0
:104EE0009A4282BF5C1A214B0122C1F3080188BF9C
:104EF0001A7071B91E4B01221A60019A2B689A42EE
:104F000001D006F08BF81B4803B0BDE8F04005F077
:104F10002DBE19480144194822460023007BFFF7A3
:104F2000A3FC3B68326823443B60121B144B326085
:104F300099680C1B9C600D4912B10A78022A07D0AF
:104F40000A78022A12BF01200020032218730A7077
:104F5000019A2B689A42D4D103B0F0BDB03600203C
:104F6000A00400208404002010050020C51B0020A0
:104F70001405002090040020C5190020D036002020
:104F80007619002013B5234C234A23680193137824
:104F9000032B214635D0042B27D0022B2DD11F4BBC
:104FA000DB7B282B01D0A82B0AD1019A0B689A42EF
:104FB00001D006F033F802B0BDE81040FFF782BF21
:104FC00001234FF0000163F30701154A154B9B1AAB
:104FD000DB08019A63F38F1123689A42E9D11248E2
:104FE00002B0BDE81040FDF70FBF00231370019A17
:104FF00023689A42DDD102B010BD0C4B187BFFF73D
:1050000045FC019A23689A42D3D102B0BDE8104012
:10501000FFF7F2BDB0360020C51B00205719002055
:1050200034B6000074B60000A4BA0000D0360020E8
:105030002DE9F74F5A4B5B4C1B6801935A4BE41A0E
:10504000C4F3C9044FF0FF31584805F0C1FD584B77
:105050001B68012B10D0032B6BD027F03F0343F0CC
:10506000010363F30707524B5248196864F38F1723
:105070003A46FDF7E7FEE5E74F4E504932685048A3
:10508000520AFEF7D7FE68B129F03F0343F001034F
:1050900063F3070931684B4864F38F194A46490A9C
:1050A000FDF7D0FEDFF83CB1474BDBF8005031682C
:1050B0001B684248402D28BF40256A189A4288BF85
:1050C0005D1AC1F3080188BF404A0144404884BFCB
:1050D00001231370007B00232A46FFF7C5FB68B14C
:1050E00028F03F0343F0010363F30708384B3948C6
:1050F000197B64F38F184246FDF7A4FE3368DBF892
:10510000002035492B44521B3360CBF800208B68BC
:105110005D1B2E4B8D601B780AB1022B92D0022BA7
:1051200014BF012200220A73284A08BF0323137008
:1051300088E7214D21492A6821480123520AFEF7B8
:10514000A3FE68B12AF03F0343F0010363F3070AAB
:105150002968224864F38F1A5246490AFDF772FE05
:105160001F4B1D4918682B6803442B601D4B1A68A0
:10517000121A1A608B681B1A8B60144B1B780AB1C9
:10518000022B05D05A1E534253410B73FFF734FDD7
:10519000074A042313600E4B1879FFF79BFB51E776
:1051A000B036002074B6000034B600009004002031
:1051B0001405002095BC000084040020C5190020BF
:1051C000A5B9000045BC000010050020C51B00204B
:1051D000D03600205DBC00007619002075BC0000B0
:1051E0008C040020A00400202DE9F041564D5748C2
:1051F0002B6888B0002607930696FEF7DBFD044671
:1052000078B101234FF0000163F30701504A514B7D
:1052100051489B1ADB0863F38F11FDF7F5FD344607
:105220002CE04E4E494832460121FEF757FE074614
:1052300070B101234FF0000163F30701444A454B6D
:1052400047489B1ADB0863F38F11FDF7DDFD15E07E
:1052500006AA02213D48FEF741FE0446A8B10123FB
:105260004FF0000163F30701394A3A4B3D489B1A5E
:10527000DB0863F38F11FDF7C7FD3C46079A2B68E7
:105280009A4220465CD005F0C9FE069FB7F5007F24
:105290000CD001234FF0000163F307012C4A2D4B82
:1052A00031489B1ADB0863F38F11CEE733682F4A2E
:1052B0002F4E5B0213602F4B1870FFF73FFD2E4BF4
:1052C000F361FFF759FC30603046FFF721FAB0F187
:1052D00000080FDA01234FF0000163F307011C4AB5
:1052E0001C4B26489B1ADB0863F38F11FDF78CFDDE
:1052F0004446C3E73046FFF73BFA061E0CDA0123AB
:105300004FF0000163F30701114A124B1C489B1A2E
:10531000DB0863F38F1180E721460122194805F06D
:1053200013FC6FF00403CDE90243CDE90444CDE959
:105330000044154B154916483A4605F05BFD9DE7BC
:1053400008B0BDE8F08100BFB0360020A5B900006C
:1053500034B6000074B600002EBB000088040020A4
:105360005ABB000089BB0000B7BB0000100500203D
:10537000A0780020C51B0020831900201BBC000062
:1053800030BC00009004002031500000D01E0020EE
:10539000A40400202DE9F043AC4FAD4D3B689DB017
:1053A0000DF12C091B9300230193402201AB4946C8
:1053B0008046FFF77DFA2B7843B1022B00F0F48092
:1053C0004046FFF763FAA34B02223CE1BDF80420FC
:1053D0001F2A1BD001234FF0000163F307019E4AEF
:1053E0009E4B9F489B1ADB0863F38F11FDF70CFD62
:1053F0009C4B1B68032B02D04046FFF76BFA1B9AAD
:105400003B689A4200F0B58105F008FE964C49468B
:10541000204602F081FC2268944B9A420CD0012372
:105420004FF0000163F307018B4A8C4B90489B1AA5
:10543000DB0863F38F11D9E7864E62687260A27B46
:10544000A168B160013A0F2A01D8637B0BB1012337
:1054500023E0E37B232B71D023D8122B58D017D80D
:10546000002B49D0032BF2D1824B02AA03F1100684
:10547000154618685968144603C40833B3422246D7
:10548000F7D11B88238012212846FFF7D7FCAFE70E
:105490001A2B4ED01E2BDAD100233373FFF7ACFB4F
:1054A000A6E72A2B71D010D8252B53D0282BCED18C
:1054B000FFF7DCFB00289BD094F90C30002B5EDA60
:1054C00002232B70FFF7FEFC92E7A82BF0D0AA2B4B
:1054D0005BD02F2BBBD1237C9B07DDD5FFF7C6FB11
:1054E000002885D094F90C30002B5ADB02232B7056
:1054F000614B01221A707BE70029CDD094F90C3062
:10550000002B5E4BB4BF187B1879FFF7BFF9C3E7D8
:105510005B4B02AA03F12006154618685968144629
:1055200003C40833B3422246F7D11868206024210F
:10553000AAE703230293042102A8A6E74FF0006321
:105540000293504B1B681BBA03934FF00213049352
:105550000C21F1E74B4B1B68013B1A0E8DF808201C
:105560001A0C8DF809208DF80B301A0A08214FF417
:1055700000338DF80A2003930DEB010085E73F4BC4
:105580001879FFF783F9022387E7FFF76FFB0028FD
:105590003FF42EAF94F90C30002B02DB02232B706A
:1055A00026E7364B187BECE72F4BDB7B2F2B79D094
:1055B000AA2B02D02A2B40F0CF80334E334B019AD6
:1055C00034681B6814FA82F199421AD894B233688D
:1055D0002F49C3F3080211440022A2421ADB2344DC
:1055E000C3F30803E3B92B48FEF704FC400717D4C4
:1055F0001C4B294803221A60284B1C6005F0B6FAA0
:10560000F6E61C1B01232B701C4B1879A4B2FFF784
:105610003DF9DCE719F8020001F8010B0132DCE783
:105620003368234433601E4B1968091B1960094B0A
:105630009A68141B9C602A7811B1022A3FF4D8AEF4
:10564000511E4A424A411A7328E700BFB036002073
:10565000C51B00207619002034B6000074B6000087
:10566000C6BA0000140500205719002055534243C4
:10567000DABA000094B60000C4190020D036002029
:10568000A6B6000088040020840400201005002035
:10569000C5190020A5B90000900400208C0400204A
:1056A000A0040020344E354B019A34681B6814FA6C
:1056B00082F1994222D894B23268C2F30803B3B996
:1056C0000123520A2E492F48FEF7B4FB78B101237B
:1056D0004FF0000263F307022B492C4B2C485B1A56
:1056E0003168DB0863F38F12490AFDF7ABFB3368BF
:1056F000234AC3F308010A44002109E01C1B0123CB
:105700002B70244B1879A4B2FFF7C0F8D4E701310D
:10571000A14208D212F801CB19F8010B8445F6D04A
:105720001D4A00211170234433601C4B1A68121B60
:105730001A601B4B99680C1B9C601AB12A78022ACC
:105740003FF456AE144A127822B12A78023A18BFB2
:10575000012278E7012276E701234FF0000163F38D
:105760000701094A094B0F489B1ADB0863F38F11A5
:105770003CE61DB0BDE8F083840400201005002045
:10578000C5190020A5B9000034B6000074B60000A9
:10579000F1BA0000D0360020C4190020A004002077
:1057A0007619002009BB000037B5154C154D22684D
:1057B0000192BFF35B8F2868BFF35B8F60B912481B
:1057C00003F0AEFEBFF35B8F55E8003F45E80002F3
:1057D000002AF9D1BFF35B8F436804221B68694636
:1057E0009847002802DA01F04FFC0090019A2368E4
:1057F00000989A4201D005F011FC03B030BD00BF03
:10580000B036002018050020DDBC000073B50D4E39
:105810000D4D326801920A28044604D12868436875
:105820000D215B68984728684368E1B25B68984738
:10583000019A33689A42204601D005F0EFFB02B08E
:1058400070BD00BFB03600201C05002013B5094C08
:1058500009482368019302F037FF019A23689A42AE
:1058600001D005F0DBFB044802B0BDE81040FBF7B7
:105870007FB900BFB03600200D58000013B50A4CA8
:105880000A482368019303F04BFE094B1860FFF7A9
:10589000DDFF019A23689A424FF0000001D005F025
:1058A000BDFB02B010BD00BFB03600204BB90000F8
:1058B0001C05002037B51E4A136801934FF02003E2
:1058C000EFF3118183F31188BFF36F8F194D2B789C
:1058D0005BB981F31188BFF36F8F6FF044000199BA
:1058E0001368994221D005F099FB013BDBB22B7084
:1058F00033B181F31188BFF36F8F6FF00F00EEE7C4
:105900000D4B1878012438B12C7081F31188BFF346
:105910006F8F6FF00A00E2E71C7081F31188BFF30C
:105920006F8F06490C601870D9E703B030BD00BF17
:10593000B0360020C81B0020C71B00200400004018
:105940002DE9F341334E336801934FF02002EFF31A
:10595000118382F31188BFF36F8F2F4A1078441C94
:10596000147080B183F31188BFF36F8F4FF08043C1
:10597000D3F80C3403F00113B3F1011F0CBF002066
:105980006FF043000CE0254D95F80080B8F1000F52
:105990000CD0107083F31188BFF36F8F6FF00A0083
:1059A000019A33689A4232D005F038FB01272F70F4
:1059B00083F31188BFF36F8F4FF0804419B34046D3
:1059C00001F0D2FDC4F80081D4F80433C4F80473A4
:1059D0002760D4F8002192B10022C4F80021104AB7
:1059E00013F0010F4FF0010308BFC4F80833002083
:1059F000C2F8803101F09AFD00232B70B6E720BF7A
:105A000040BF20BFE5E7C4F800112760F4E702B00B
:105A1000BDE8F081B0360020C81B0020C71B002065
:105A200000E100E013B50A4C002223680193104600
:105A3000012101F0D7FD002001F078FD019A2368D3
:105A40009A424FF0000001D005F0E8FA02B010BD14
:105A5000B0360020F7B52D4C236801934FF020029B
:105A6000EFF3118382F31188BFF36F8F284E3278E2
:105A7000C2B183F31188BFF36F8F4FF08042D2F829
:105A80001C34D2F8182403F0030343F48033934307
:105A9000019A236814BF6FF0430000209A4233D06C
:105AA00005F0BCFA0125357083F31188BFF36F8FC1
:105AB0004FF08043174FC3F804210226C3F818158E
:105AC000C3F8046311F003013D604FF01807C3F8F9
:105AD0000873C3F80C21C3F81021CED11022C3F8EB
